{
  "_format": "hh3-artifact-1",
  "contractName": "CandidateRegistry",
  "sourceName": "contracts/CandidateRegistry.sol",
  "abi": [
    {
      "inputs": [],
      "stateMutability": "nonpayable",
      "type": "constructor"
    },
    {
      "anonymous": false,
      "inputs": [
        {
          "indexed": true,
          "internalType": "uint256",
          "name": "uid",
          "type": "uint256"
        },
        {
          "indexed": false,
          "internalType": "string",
          "name": "name",
          "type": "string"
        }
      ],
      "name": "CandidateRegistered",
      "type": "event"
    },
    {
      "inputs": [
        {
          "internalType": "uint256",
          "name": "uid",
          "type": "uint256"
        }
      ],
      "name": "getCandidate",
      "outputs": [
        {
          "components": [
            {
              "internalType": "uint256",
              "name": "uid",
              "type": "uint256"
            },
            {
              "internalType": "string",
              "name": "name",
              "type": "string"
            },
            {
              "internalType": "string",
              "name": "photoURL",
              "type": "string"
            },
            {
              "internalType": "string",
              "name": "partyURL",
              "type": "string"
            }
          ],
          "internalType": "struct CandidateRegistry.Candidate",
          "name": "",
          "type": "tuple"
        }
      ],
      "stateMutability": "view",
      "type": "function"
    },
    {
      "inputs": [],
      "name": "getCandidateList",
      "outputs": [
        {
          "internalType": "uint256[]",
          "name": "",
          "type": "uint256[]"
        }
      ],
      "stateMutability": "view",
      "type": "function"
    },
    {
      "inputs": [
        {
          "internalType": "uint256",
          "name": "uid",
          "type": "uint256"
        }
      ],
      "name": "isCandidateRegistered",
      "outputs": [
        {
          "internalType": "bool",
          "name": "",
          "type": "bool"
        }
      ],
      "stateMutability": "view",
      "type": "function"
    },
    {
      "inputs": [
        {
          "internalType": "uint256",
          "name": "uid",
          "type": "uint256"
        },
        {
          "internalType": "string",
          "name": "name",
          "type": "string"
        },
        {
          "internalType": "string",
          "name": "photoURL",
          "type": "string"
        },
        {
          "internalType": "string",
          "name": "partyURL",
          "type": "string"
        }
      ],
      "name": "registerCandidate",
      "outputs": [],
      "stateMutability": "nonpayable",
      "type": "function"
    }
  ],
  "bytecode": "0x6080604052348015600e575f5ffd5b50600280546001600160a01b031916331790556108fe8061002e5f395ff3fe608060405234801561000f575f5ffd5b506004361061004a575f3560e01c806335b8e8201461004e5780633d1b5eae14610077578063fdbc40061461008c578063ffdc9d27146100a1575b5f5ffd5b61006161005c366004610549565b6100d3565b60405161006e919061058e565b60405180910390f35b61008a610085366004610696565b610336565b005b6100946104f3565b60405161006e919061072e565b6100c36100af366004610549565b5f9081526001602052604090205460ff1690565b604051901515815260200161006e565b6100fd60405180608001604052805f81526020016060815260200160608152602001606081525090565b5f8281526001602052604090205460ff1661015f5760405162461bcd60e51b815260206004820152601b60248201527f43616e646964617465206973206e6f742072656769737465726564000000000060448201526064015b60405180910390fd5b5f828152602081815260409182902082516080810190935280548352600181018054919284019161018f90610770565b80601f01602080910402602001604051908101604052809291908181526020018280546101bb90610770565b80156102065780601f106101dd57610100808354040283529160200191610206565b820191905f5260205f20905b8154815290600101906020018083116101e957829003601f168201915b5050505050815260200160028201805461021f90610770565b80601f016020809104026020016040519081016040528092919081815260200182805461024b90610770565b80156102965780601f1061026d57610100808354040283529160200191610296565b820191905f5260205f20905b81548152906001019060200180831161027957829003601f168201915b505050505081526020016003820180546102af90610770565b80601f01602080910402602001604051908101604052809291908181526020018280546102db90610770565b80156103265780601f106102fd57610100808354040283529160200191610326565b820191905f5260205f20905b81548152906001019060200180831161030957829003601f168201915b5050505050815250509050919050565b6002546001600160a01b0316331461039a5760405162461bcd60e51b815260206004820152602160248201527f4f6e6c79206f776e65722063616e2063616c6c20746869732066756e6374696f6044820152603760f91b6064820152608401610156565b5f8481526001602052604090205460ff16156103f85760405162461bcd60e51b815260206004820152601f60248201527f43616e64696461746520697320616c72656164792072656769737465726564006044820152606401610156565b604080516080810182528581526020808201868152828401869052606083018590525f88815291829052929020815181559151909190600182019061043d90826107f4565b506040820151600282019061045290826107f4565b506060820151600382019061046790826107f4565b5050505f848152600160208190526040808320805460ff1916831790556003805492830181559092527fc2575a0e9e593c00f959f8c92f12db2869c3395a3b0502d05e2516446f71f85b018590555184907f96b6e1d9af8279de0ae4d01600bcae708bdb292c4a8f8f150aff92f5caf56a42906104e59086906108af565b60405180910390a250505050565b6060600380548060200260200160405190810160405280929190818152602001828054801561053f57602002820191905f5260205f20905b81548152602001906001019080831161052b575b5050505050905090565b5f60208284031215610559575f5ffd5b5035919050565b5f81518084528060208401602086015e5f602082860101526020601f19601f83011685010191505092915050565b60208152815160208201525f6020830151608060408401526105b360a0840182610560565b90506040840151601f198483030160608501526105d08282610560565b9150506060840151601f198483030160808501526105ee8282610560565b95945050505050565b634e487b7160e01b5f52604160045260245ffd5b5f82601f83011261061a575f5ffd5b813567ffffffffffffffff811115610634576106346105f7565b604051601f8201601f19908116603f0116810167ffffffffffffffff81118282101715610663576106636105f7565b60405281815283820160200185101561067a575f5ffd5b816020850160208301375f918101602001919091529392505050565b5f5f5f5f608085870312156106a9575f5ffd5b84359350602085013567ffffffffffffffff8111156106c6575f5ffd5b6106d28782880161060b565b935050604085013567ffffffffffffffff8111156106ee575f5ffd5b6106fa8782880161060b565b925050606085013567ffffffffffffffff811115610716575f5ffd5b6107228782880161060b565b91505092959194509250565b602080825282518282018190525f918401906040840190835b81811015610765578351835260209384019390920191600101610747565b509095945050505050565b600181811c9082168061078457607f821691505b6020821081036107a257634e487b7160e01b5f52602260045260245ffd5b50919050565b601f8211156107ef57805f5260205f20601f840160051c810160208510156107cd5750805b601f840160051c820191505b818110156107ec575f81556001016107d9565b50505b505050565b815167ffffffffffffffff81111561080e5761080e6105f7565b6108228161081c8454610770565b846107a8565b6020601f821160018114610854575f831561083d5750848201515b5f19600385901b1c1916600184901b1784556107ec565b5f84815260208120601f198516915b828110156108835787850151825560209485019460019092019101610863565b50848210156108a057868401515f19600387901b60f8161c191681555b50505050600190811b01905550565b602081525f6108c16020830184610560565b939250505056fea26469706673582212201c04697a0204931a2dcfc5398f2eec15400c47ed8d05f3cb156eb8098bb842e064736f6c634300081c0033",
  "linkReferences": {},
  "deployedLinkReferences": {},
  "immutableReferences": {},
  "inputSourceName": "project/contracts/CandidateRegistry.sol",
  "buildInfoId": "solc-0_8_28-8c5aa2923d086aea8ce4a6398394d5383e64ec48"
}