{
  "_format": "hh3-artifact-1",
  "contractName": "Election",
  "sourceName": "contracts/ElectionFactory.sol",
  "abi": [
    {
      "inputs": [
        {
          "internalType": "address",
          "name": "_owner",
          "type": "address"
        },
        {
          "internalType": "string",
          "name": "_electionName",
          "type": "string"
        },
        {
          "internalType": "uint256",
          "name": "_startTime",
          "type": "uint256"
        },
        {
          "internalType": "uint256",
          "name": "_endTime",
          "type": "uint256"
        },
        {
          "internalType": "address",
          "name": "_voterRegistry",
          "type": "address"
        },
        {
          "internalType": "address",
          "name": "_candidateRegistry",
          "type": "address"
        }
      ],
      "stateMutability": "nonpayable",
      "type": "constructor"
    },
    {
      "anonymous": false,
      "inputs": [
        {
          "indexed": false,
          "internalType": "enum Election.State",
          "name": "newState",
          "type": "uint8"
        }
      ],
      "name": "ElectionStateChanged",
      "type": "event"
    },
    {
      "anonymous": false,
      "inputs": [
        {
          "indexed": true,
          "internalType": "address",
          "name": "voter",
          "type": "address"
        },
        {
          "indexed": true,
          "internalType": "uint256",
          "name": "candidateId",
          "type": "uint256"
        }
      ],
      "name": "VoteCasted",
      "type": "event"
    },
    {
      "inputs": [
        {
          "internalType": "uint256",
          "name": "candidateId",
          "type": "uint256"
        }
      ],
      "name": "addCandidateToElection",
      "outputs": [],
      "stateMutability": "nonpayable",
      "type": "function"
    },
    {
      "inputs": [],
      "name": "candidateRegistry",
      "outputs": [
        {
          "internalType": "address",
          "name": "",
          "type": "address"
        }
      ],
      "stateMutability": "view",
      "type": "function"
    },
    {
      "inputs": [
        {
          "internalType": "uint256",
          "name": "candidateId",
          "type": "uint256"
        }
      ],
      "name": "castVote",
      "outputs": [],
      "stateMutability": "nonpayable",
      "type": "function"
    },
    {
      "inputs": [],
      "name": "electionName",
      "outputs": [
        {
          "internalType": "string",
          "name": "",
          "type": "string"
        }
      ],
      "stateMutability": "view",
      "type": "function"
    },
    {
      "inputs": [],
      "name": "electionState",
      "outputs": [
        {
          "internalType": "enum Election.State",
          "name": "",
          "type": "uint8"
        }
      ],
      "stateMutability": "view",
      "type": "function"
    },
    {
      "inputs": [],
      "name": "endElection",
      "outputs": [],
      "stateMutability": "nonpayable",
      "type": "function"
    },
    {
      "inputs": [],
      "name": "endTime",
      "outputs": [
        {
          "internalType": "uint256",
          "name": "",
          "type": "uint256"
        }
      ],
      "stateMutability": "view",
      "type": "function"
    },
    {
      "inputs": [],
      "name": "getElectionInfo",
      "outputs": [
        {
          "internalType": "string",
          "name": "",
          "type": "string"
        },
        {
          "internalType": "uint256",
          "name": "",
          "type": "uint256"
        },
        {
          "internalType": "uint256",
          "name": "",
          "type": "uint256"
        },
        {
          "internalType": "enum Election.State",
          "name": "",
          "type": "uint8"
        }
      ],
      "stateMutability": "view",
      "type": "function"
    },
    {
      "inputs": [],
      "name": "getParticipatingCandidates",
      "outputs": [
        {
          "internalType": "uint256[]",
          "name": "",
          "type": "uint256[]"
        }
      ],
      "stateMutability": "view",
      "type": "function"
    },
    {
      "inputs": [],
      "name": "getTotalVotesCast",
      "outputs": [
        {
          "internalType": "uint256",
          "name": "",
          "type": "uint256"
        }
      ],
      "stateMutability": "view",
      "type": "function"
    },
    {
      "inputs": [
        {
          "internalType": "uint256",
          "name": "candidateId",
          "type": "uint256"
        }
      ],
      "name": "getVoteTally",
      "outputs": [
        {
          "internalType": "uint256",
          "name": "",
          "type": "uint256"
        }
      ],
      "stateMutability": "view",
      "type": "function"
    },
    {
      "inputs": [
        {
          "internalType": "uint256",
          "name": "",
          "type": "uint256"
        }
      ],
      "name": "isCandidateInElection",
      "outputs": [
        {
          "internalType": "bool",
          "name": "",
          "type": "bool"
        }
      ],
      "stateMutability": "view",
      "type": "function"
    },
    {
      "inputs": [],
      "name": "owner",
      "outputs": [
        {
          "internalType": "address",
          "name": "",
          "type": "address"
        }
      ],
      "stateMutability": "view",
      "type": "function"
    },
    {
      "inputs": [
        {
          "internalType": "uint256",
          "name": "",
          "type": "uint256"
        }
      ],
      "name": "participatingCandidateIDs",
      "outputs": [
        {
          "internalType": "uint256",
          "name": "",
          "type": "uint256"
        }
      ],
      "stateMutability": "view",
      "type": "function"
    },
    {
      "inputs": [],
      "name": "startElection",
      "outputs": [],
      "stateMutability": "nonpayable",
      "type": "function"
    },
    {
      "inputs": [],
      "name": "startTime",
      "outputs": [
        {
          "internalType": "uint256",
          "name": "",
          "type": "uint256"
        }
      ],
      "stateMutability": "view",
      "type": "function"
    },
    {
      "inputs": [],
      "name": "totalVotesCast",
      "outputs": [
        {
          "internalType": "uint256",
          "name": "",
          "type": "uint256"
        }
      ],
      "stateMutability": "view",
      "type": "function"
    },
    {
      "inputs": [
        {
          "internalType": "address",
          "name": "voter",
          "type": "address"
        }
      ],
      "name": "validateVoteCast",
      "outputs": [
        {
          "internalType": "bool",
          "name": "",
          "type": "bool"
        }
      ],
      "stateMutability": "view",
      "type": "function"
    },
    {
      "inputs": [
        {
          "internalType": "uint256",
          "name": "",
          "type": "uint256"
        }
      ],
      "name": "voteTally",
      "outputs": [
        {
          "internalType": "uint256",
          "name": "",
          "type": "uint256"
        }
      ],
      "stateMutability": "view",
      "type": "function"
    },
    {
      "inputs": [],
      "name": "voterRegistry",
      "outputs": [
        {
          "internalType": "address",
          "name": "",
          "type": "address"
        }
      ],
      "stateMutability": "view",
      "type": "function"
    }
  ],
  "bytecode": "0x60e060405234801561000f575f5ffd5b506040516110a63803806110a683398101604081905261002e916100a5565b6001600160a01b0386166080525f610046868261021e565b506001939093556002919091556001600160a01b0390811660a0521660c05250506008805460ff191690556102d8565b80516001600160a01b038116811461008c575f5ffd5b919050565b634e487b7160e01b5f52604160045260245ffd5b5f5f5f5f5f5f60c087890312156100ba575f5ffd5b6100c387610076565b60208801519096506001600160401b038111156100de575f5ffd5b8701601f810189136100ee575f5ffd5b80516001600160401b0381111561010757610107610091565b604051601f8201601f19908116603f011681016001600160401b038111828210171561013557610135610091565b6040528181528282016020018b101561014c575f5ffd5b8160208401602083015e5f91810160200191909152604089015160608a015191975095509350610180905060808801610076565b915061018e60a08801610076565b90509295509295509295565b600181811c908216806101ae57607f821691505b6020821081036101cc57634e487b7160e01b5f52602260045260245ffd5b50919050565b601f82111561021957805f5260205f20601f840160051c810160208510156101f75750805b601f840160051c820191505b81811015610216575f8155600101610203565b50505b505050565b81516001600160401b0381111561023757610237610091565b61024b81610245845461019a565b846101d2565b6020601f82116001811461027d575f83156102665750848201515b5f19600385901b1c1916600184901b178455610216565b5f84815260208120601f198516915b828110156102ac578785015182556020948501946001909201910161028c565b50848210156102c957868401515f19600387901b60f8161c191681555b50505050600190811b01905550565b60805160a05160c051610d816103255f395f818161013001526106ac01525f81816102fb015261045901525f81816102a101528181610593015281816107e301526108c60152610d815ff3fe608060405234801561000f575f5ffd5b5060043610610127575f3560e01c806378e97925116100a95780638da5cb5b1161006e5780638da5cb5b1461029c57806392e2c6d2146102c3578063b1eeda2b146102cb578063be60040e146102f6578063fe0698311461031d575f5ffd5b806378e979251461023e57806379cc9351146102475780637de418d51461026657806385e8e7a71461026f57806386852dca14610284575f5ffd5b80633ff44f89116100ef5780633ff44f89146101d45780635532057b146101e757806359f784681461021957806362d73eb8146102215780636eef583c14610229575f5ffd5b806319de04771461012b5780632280043d1461016f5780633197cbb614610189578063390071c3146101a05780633eb76b9c146101bf575b5f5ffd5b6101527f000000000000000000000000000000000000000000000000000000000000000081565b6040516001600160a01b0390911681526020015b60405180910390f35b60085461017c9060ff1681565b6040516101669190610b7f565b61019260025481565b604051908152602001610166565b6101926101ae366004610b93565b60056020525f908152604090205481565b6101d26101cd366004610b93565b610330565b005b6101d26101e2366004610b93565b610588565b6102096101f5366004610b93565b60036020525f908152604090205460ff1681565b6040519015158152602001610166565b6101d26107d8565b6101d26108bb565b610231610998565b6040516101669190610baa565b61019260015481565b610192610255366004610b93565b5f9081526005602052604090205490565b61019260075481565b6102776109ee565b6040516101669190610c1a565b61028c610a79565b6040516101669493929190610c33565b6101527f000000000000000000000000000000000000000000000000000000000000000081565b600754610192565b6102096102d9366004610c69565b6001600160a01b03165f9081526006602052604090205460ff1690565b6101527f000000000000000000000000000000000000000000000000000000000000000081565b61019261032b366004610b93565b610b2c565b600160085460ff16600281111561034957610349610b4b565b146103945760405162461bcd60e51b8152602060048201526016602482015275456c656374696f6e206973206e6f742061637469766560501b60448201526064015b60405180910390fd5b335f9081526006602052604090205460ff16156103f35760405162461bcd60e51b815260206004820152601760248201527f566f7465722068617320616c726561647920766f746564000000000000000000604482015260640161038b565b5f8181526003602052604090205460ff166104445760405162461bcd60e51b8152602060048201526011602482015270496e76616c69642063616e64696461746560781b604482015260640161038b565b604051630b30652360e11b81523360048201527f00000000000000000000000000000000000000000000000000000000000000006001600160a01b031690631660ca4690602401602060405180830381865afa1580156104a6573d5f5f3e3d5ffd5b505050506040513d601f19601f820116820180604052508101906104ca9190610c8f565b61050e5760405162461bcd60e51b8152602060048201526015602482015274566f746572206973206e6f7420656c696769626c6560581b604482015260640161038b565b335f908152600660209081526040808320805460ff191660011790558383526005909152812080549161054083610cae565b909155505060078054905f61055483610cae565b9091555050604051819033907fd0e6c39f2e086dc49f1524b47725526a56945cd1ff661f37976f1725a1e56986905f90a350565b336001600160a01b037f000000000000000000000000000000000000000000000000000000000000000016146105d05760405162461bcd60e51b815260040161038b90610cd2565b5f60085460ff1660028111156105e8576105e8610b4b565b146106355760405162461bcd60e51b815260206004820152601860248201527f456c656374696f6e20616c726561647920737461727465640000000000000000604482015260640161038b565b5f8181526003602052604090205460ff16156106935760405162461bcd60e51b815260206004820152601760248201527f43616e64696461746520616c7265616479206164646564000000000000000000604482015260640161038b565b6040516001622362d960e01b03198152600481018290527f00000000000000000000000000000000000000000000000000000000000000006001600160a01b03169063ffdc9d2790602401602060405180830381865afa1580156106f9573d5f5f3e3d5ffd5b505050506040513d601f19601f8201168201806040525081019061071d9190610c8f565b61077f5760405162461bcd60e51b815260206004820152602d60248201527f43616e646964617465206e6f74207265676973746572656420696e2043616e6460448201526c6964617465526567697374727960981b606482015260840161038b565b5f818152600360209081526040808320805460ff19166001908117909155600590925282208290556004805491820181559091527f8a35acfbc15ff81a39ae7d344fd709f28e8600b4aa8c65c6b64bfe7fe36bd19b0155565b336001600160a01b037f000000000000000000000000000000000000000000000000000000000000000016146108205760405162461bcd60e51b815260040161038b90610cd2565b600160085460ff16600281111561083957610839610b4b565b146108735760405162461bcd60e51b815260206004820152600a6024820152694e6f742061637469766560b01b604482015260640161038b565b6008805460ff191660029081179091556040517f82aa0cc22cbb103bd5f28a40c65b9e63f2df333bbb70c6c9128eb83d7cb1041d916108b191610b7f565b60405180910390a1565b336001600160a01b037f000000000000000000000000000000000000000000000000000000000000000016146109035760405162461bcd60e51b815260040161038b90610cd2565b5f60085460ff16600281111561091b5761091b610b4b565b1461095a5760405162461bcd60e51b815260206004820152600f60248201526e105b1c9958591e481cdd185c9d1959608a1b604482015260640161038b565b6008805460ff191660019081179091556040517f82aa0cc22cbb103bd5f28a40c65b9e63f2df333bbb70c6c9128eb83d7cb1041d916108b191610b7f565b606060048054806020026020016040519081016040528092919081815260200182805480156109e457602002820191905f5260205f20905b8154815260200190600101908083116109d0575b5050505050905090565b5f80546109fa90610d13565b80601f0160208091040260200160405190810160405280929190818152602001828054610a2690610d13565b8015610a715780601f10610a4857610100808354040283529160200191610a71565b820191905f5260205f20905b815481529060010190602001808311610a5457829003601f168201915b505050505081565b60605f5f5f5f60015460025460085f9054906101000a900460ff16838054610aa090610d13565b80601f0160208091040260200160405190810160405280929190818152602001828054610acc90610d13565b8015610b175780601f10610aee57610100808354040283529160200191610b17565b820191905f5260205f20905b815481529060010190602001808311610afa57829003601f168201915b50505050509350935093509350935090919293565b60048181548110610b3b575f80fd5b5f91825260209091200154905081565b634e487b7160e01b5f52602160045260245ffd5b60038110610b7b57634e487b7160e01b5f52602160045260245ffd5b9052565b60208101610b8d8284610b5f565b92915050565b5f60208284031215610ba3575f5ffd5b5035919050565b602080825282518282018190525f918401906040840190835b81811015610be1578351835260209384019390920191600101610bc3565b509095945050505050565b5f81518084528060208401602086015e5f602082860101526020601f19601f83011685010191505092915050565b602081525f610c2c6020830184610bec565b9392505050565b608081525f610c456080830187610bec565b9050846020830152836040830152610c606060830184610b5f565b95945050505050565b5f60208284031215610c79575f5ffd5b81356001600160a01b0381168114610c2c575f5ffd5b5f60208284031215610c9f575f5ffd5b81518015158114610c2c575f5ffd5b5f60018201610ccb57634e487b7160e01b5f52601160045260245ffd5b5060010190565b60208082526021908201527f4f6e6c79206f776e65722063616e2063616c6c20746869732066756e6374696f6040820152603760f91b606082015260800190565b600181811c90821680610d2757607f821691505b602082108103610d4557634e487b7160e01b5f52602260045260245ffd5b5091905056fea2646970667358221220471067a6a313acc6c288b74a6e270b1d96feccc95743b38f453b4cd25b109ae064736f6c634300081c0033",
  "linkReferences": {},
  "deployedLinkReferences": {},
  "immutableReferences": {
    "136": [
      {
        "length": 32,
        "start": 673
      },
      {
        "length": 32,
        "start": 1427
      },
      {
        "length": 32,
        "start": 2019
      },
      {
        "length": 32,
        "start": 2246
      }
    ],
    "138": [
      {
        "length": 32,
        "start": 763
      },
      {
        "length": 32,
        "start": 1113
      }
    ],
    "140": [
      {
        "length": 32,
        "start": 304
      },
      {
        "length": 32,
        "start": 1708
      }
    ]
  },
  "inputSourceName": "project/contracts/ElectionFactory.sol",
  "buildInfoId": "solc-0_8_28-5931b0bc70a40d072a5da06e9e7607c9d0de151a"
}