{
  "_format": "hh3-artifact-1",
  "contractName": "VoterRegistry",
  "sourceName": "contracts/VoterRegistry.sol",
  "abi": [
    {
      "inputs": [],
      "stateMutability": "nonpayable",
      "type": "constructor"
    },
    {
      "anonymous": false,
      "inputs": [
        {
          "indexed": true,
          "internalType": "address",
          "name": "voter",
          "type": "address"
        }
      ],
      "name": "VoterRegistered",
      "type": "event"
    },
    {
      "inputs": [],
      "name": "getVoterList",
      "outputs": [
        {
          "internalType": "address[]",
          "name": "",
          "type": "address[]"
        }
      ],
      "stateMutability": "view",
      "type": "function"
    },
    {
      "inputs": [
        {
          "internalType": "address",
          "name": "voter",
          "type": "address"
        }
      ],
      "name": "isVoterEligible",
      "outputs": [
        {
          "internalType": "bool",
          "name": "",
          "type": "bool"
        }
      ],
      "stateMutability": "view",
      "type": "function"
    },
    {
      "inputs": [
        {
          "internalType": "address",
          "name": "voter",
          "type": "address"
        }
      ],
      "name": "registerVoter",
      "outputs": [],
      "stateMutability": "nonpayable",
      "type": "function"
    }
  ],
  "bytecode": "0x6080604052348015600e575f5ffd5b50600280546001600160a01b0319163317905561032b8061002e5f395ff3fe608060405234801561000f575f5ffd5b506004361061003f575f3560e01c80631660ca461461004357806338db6dd314610083578063b28d92ae14610098575b5f5ffd5b61006e61005136600461027d565b6001600160a01b03165f9081526020819052604090205460ff1690565b60405190151581526020015b60405180910390f35b61009661009136600461027d565b6100ad565b005b6100a061021d565b60405161007a91906102aa565b6002546001600160a01b031633146101165760405162461bcd60e51b815260206004820152602160248201527f4f6e6c79206f776e65722063616e2063616c6c20746869732066756e6374696f6044820152603760f91b60648201526084015b60405180910390fd5b6001600160a01b0381165f9081526001602052604090205460ff161561017e5760405162461bcd60e51b815260206004820152601b60248201527f566f74657220697320616c726561647920726567697374657265640000000000604482015260640161010d565b6001600160a01b0381165f818152602081815260408083208054600160ff199182168117909255928190528184208054909316811790925560038054928301815583527fc2575a0e9e593c00f959f8c92f12db2869c3395a3b0502d05e2516446f71f85b90910180546001600160a01b03191684179055517fb6be2187d059cc2a55fe29e0e503b566e1e0f8c8780096e185429350acffd3dd9190a250565b6060600380548060200260200160405190810160405280929190818152602001828054801561027357602002820191905f5260205f20905b81546001600160a01b03168152600190910190602001808311610255575b5050505050905090565b5f6020828403121561028d575f5ffd5b81356001600160a01b03811681146102a3575f5ffd5b9392505050565b602080825282518282018190525f918401906040840190835b818110156102ea5783516001600160a01b03168352602093840193909201916001016102c3565b50909594505050505056fea26469706673582212201e68c9b699acc1372f03da23c10627fb50926017cd702b22c0e494259015737564736f6c634300081c0033",
  "linkReferences": {},
  "deployedLinkReferences": {},
  "immutableReferences": {},
  "inputSourceName": "project/contracts/VoterRegistry.sol",
  "buildInfoId": "solc-0_8_28-f963be6fa5e4e5077e837f31c85ce0123dc724d9"
}